:100319007FBFDFEFF7FBFDFE8040201008040201DC
:1003290000000000000000007E818189894E001FC5
:100339006888681F00FF40202040FF00FF919191CD
:100349009100007E818181817E00F00E010EF00016
:10035900FF91919191007F888C8A7100000000F2D1
:10036900979202F2121202F202F2929202F242B24F
:10037900020202F20282F282000000000000000084
:1005CF000B1100000000000000000000000B1C00D9
:0A05DF000000000000000000000012
:1005F00020B10375080120B00375080220B203750D
:0A060000080320B303750804AF08D7
:01060A0022CD
:10047E00E52A04FFEFD39400401B74102FF8E6FE1C
:10048E0074112FF8A606741B2FF8E6FE741C2FF8B5
:10049E00A6061F80DFE51024FE600D14600D1460AB
:1004AE000D2403700B151C22051C2215112205119B
:0104BE00221B
:1004BF00E527603524FE601414601B1460222403AA
:1004CF007027E5106401602175100222E5106402A7
:1004DF00601775100122E5106403600D751004227A
:0A04EF00E510640460037510032299
:10060B001203E67C007D0812028E8D281203E67C15
:09061B00007D0812028E8D2922D7
:10038900E4F530E530C3952A5052120664741125FC
:1003990030F8E6FF3395E0FE74192FF58274033EB9
:1003A900F583E493FF741C2530F8E6FD3395E0FCF2
:1003B90074212DF58274033CF583E493FD7C0012CE
:1003C9000650120664E52890031993FFE529900366
:0C03D9002193FD7C00120650053080A727
:0103E50022F5
:10055F00E4F530E530C3952A501D74112530F8E6C7
:10056F00B52810741C2530F8E6B52907052A1206A0
:07057F000B050F053080DCC5
:010586002252
:10000E00E4F532F533120664E4F531E5312532902C
:10001E00032993FD7C00AF311205AD0531E531C3E7
:10002E00940840E70533E533D39404400FE4F533E9
:10003E000532E532D394584003E4F532E50F7002F1
:10004E00D2A0E50FB40102C2A0E50FB40204C2A013
:10005E00C2A1E50FB40306C2A0C2A1C2A2E50FB4AD
:10006E000408C2A0C2A1C2A2C2A3E50FB4050AC26F
:10007E00A0C2A1C2A2C2A3C2A4E50FB4060CC2A024
:10008E00C2A1C2A2C2A3C2A4C2A5E50FB4070EC2EA
:10009E00A0C2A1C2A2C2A3C2A4C2A5C2A6E50F64F9
:1000AE00086003020016C2A0C2A1C2A2C2A3C2A4CB
:0900BE00C2A5C2A6C2A7020016E9
:10043300753004E530C3952A501974112530F8E658
:10044300B5110C741C2530F8E6B51C0312000E051B
:100453003080E0C3E51164809480401BD3E51164D0
:100463008094875012C3E51C648094804009D3E5CF
:0A0473001C64809487400312000E01
:01047D00225C
:1000C700752A02751004750FFF1205F0BF011F1284
:1000D7000624752BC81203E61200038F271204BFEC
:1000E70012066412038912055F12043380DB1205BE
:1000F700F0BF021F120624752B961203E6120003A7
:100107008F271204BF12066412038912055F1204B7
:100117003380DB1205F0BF031F120624752B641210
:1001270003E61200038F271204BF12066412038925
:1001370012055F12043380DB1205F0BF041F12069D
:1001470024752B961203E61200038F271204BF12A1
:0E015700066412038912055F12043380DB2256
:03000B000201658A
:10016500C0E0C0F0C083C082C0D075D000C000C060
:0D01750001C002C003C004C005C006C007E1
:10018200758A18758CFC050AE50A70020509643245
:1001920045097007F509F50A1204F9050CE50C701A
:1001A20002050BB52B0BE4B50B07F50BF50C12048E
:1001B2007E1205F0EF6404702C050EE50E70020548
:1001C2000DB48821E50DB4131C750D00750E0012D7
:1001D200060BE52890031993FFE52990032193FD6F
:0501E2007C0012065034
:1001E700D007D006D005D004D003D002D001D0006C
:0B01F700D0D0D082D083D0F0D0E03216
:02053200AD0713
:10053400E4FB74807E00A803088006CEA2E713CEF5
:1005440013D8F8FFEDF582EF558224FF92B4D2B6AA
:0A055400C2B60BBB08DCD2B5C2B57D
:01055E00227A
:05066400C2B6C2B52280
:10065000AA07AF051205328A807F017E0012063B91
:040660007580FF2280
:1005AD00AA07AF05120532AF027480A807088002B2
:1005BD00C313D8FCF4F5807F017E0012063B7580D5
:0205CD00FF220B
:10063B00EF1FAC0670011E4C600A7D027CEFDCFEE6
:04064B00DDFC80EC66
:01064F002288
:0605E900013400013500A1
:05000300AF36E4F53604
:0100080022D5
:10058700E4FF7590FFC2922095027F0A7590FFC223
:10059700912096027F072094027F0F7590FFC290EB
:0505A7002095027F0C0D
:0105AC00222C
:1004F9008535341205878F35E5347008E535B4073D
:1005090003753602E5347008E535B40F0375360115
:10051900E5347008E535B40A03753604E534700826
:08052900E535B40C037536033F
:0105310022A7
:100624005389F0438901758A18758CFCC28DD28C6C
:07063400D2A9D2AFC2B92226
:03000000020202F7
:0C020200787FE4F6D8FD758136020249D1
:10028E00C2D5EC30E709B2D5E4C39DFDE49CFCEE8B
:10029E0030E715B2D5E4C39FFFE49EFE1202C4C33D
:1002AE00E49DFDE49CFC80031202C430D507C3E438
:0602BE009FFFE49EFE22FA
:1003E600AC2CAD2DAE2EAF2F7810EC4D4E4F7004C9
:1003F6007CA57DA5C3EC13FCED13FDEE13FEEF13F8
:10040600FF5010EC64CCFCED644CFDEE644EFEEF48
:1004160064CEFFD8DF8C2C8D2D8E2E8F2FEE547F41
:0D042600FE228E2C8F2D74A5F52EF52F22B1
:10020E000200C7E493A3F8E493A34003F68001F23F
:10021E0008DFF48029E493A3F85407240CC8C333F1
:10022E00C4540F4420C8834004F456800146F6DFC0
:10023E00E4800B01020408102040809005CFE47E7C
:10024E00019360BCA3FF543F30E509541FFEE493B5
:10025E00A360010ECF54C025E060A840B8E493A37C
:10026E00FAE493A3F8E493A3C8C582C8CAC583CAA7
:10027E00F0A3C8C582C8CAC583CADFE9DEE780BE5F
:0105EF00000B
:1002C400BC000BBE0029EF8DF084FFADF022E4CC1E
:1002D400F875F008EF2FFFEE33FEEC33FCEE9DECE7
:1002E400984005FCEE9DFE0FD5F0E9E4CEFD22ED2D
:1002F400F8F5F0EE8420D21CFEADF075F008EF2F77
:10030400FFED33FD4007985006D5F0F222C398FD67
:050314000FD5F0EA2204
:00000001FF
