:10000E007FBFDFEFF7FBFDFE8040201008040201EA
:10001E000040C0C0CE71010916201018090A0A044A
:10002E000000000000000000324949492600417FCF
:10003E0041007F201010207F007F48484830007F0D
:10004E00010101007F494941002200217F0100FF8B
:10005E00003E4141413E007F484C4A31007F4141C4
:10006E00413E00417F41007F201C027F000F34443F
:10007E00340F007F484C4A310040201F20400022A0
:10008E000023474D593100FF007F4141413E004161
:10009E007F41007F484840007F48484000417F41F3
:1000AE00003E41414122007E0101017E007F01019F
:1000BE00010140407F40400040201F2040002200B0
:1000CE00224149493600FF007F494941007F201CEB
:1000DE00027F0040407F4040007F494941007F48F9
:1000EE004C4A310040407F4040000F3444340F00F2
:1000FE00417F41007F201C027F007F201010207F57
:10010E00007F494941007F201C027F0040407F4014
:10011E00400022000C347F040000000000000000AC
:10012E007E818189894E001F6888681F00FF4020EC
:10013E002040FF00FF9191919100007E818181818D
:10014E007E00F00E010EF000FF91919191007F88DC
:10015E008C8A7100000000F2979202F2121202F2E3
:10016E0002F2929202F242B2020202F20282F28291
:08017E00000000000000000079
:100747000B1100000000000000000000000B1C005F
:0A0757000000000000000000000098
:1007680020B10375080120B00375080220B2037593
:0A077800080320B303750804AF085E
:010782002254
:10049400E4F531F5321207DCE4F530E5302531FFBF
:1004A400E433FE741E2FF58274003EF583E493FD5D
:1004B4007C00AF301207250530E530C3940840DBDB
:1004C4000532E532D394084013E4F5320531D3E51F
:1004D400319400748094814003E4F531120768EF8D
:1004E40064016018120768EF64026010120768EF75
:0C04F40064036008120768EF6404709C49
:0105000022D8
:1005F600E52A04FFEFD39400401B74102FF8E6FEA3
:1006060074112FF8A606741B2FF8E6FE741C2FF83B
:10061600A6061F80DFE51024FE600D14600D146031
:100626000D2403700B151C22051C22151122051121
:0106360022A1
:10063700E527603524FE601414601B146022240330
:100647007027E5106401602175100222E51064022D
:10065700601775100122E5106403600D7510042200
:0A066700E51064046003751003221F
:1007830012055E7C007D081204098D2812055E7C2B
:09079300007D081204098D2922E1
:10050100E4F530E530C3952A50521207DC74112509
:1005110030F8E6FF3395E0FE740E2FF58274003E4D
:10052100F583E493FF741C2530F8E6FD3395E0FC78
:1005310074162DF58274003CF583E493FD7C001262
:1005410007C81207DCE52890000E93FFE52990000B
:0C0551001693FD7C001207C8053080A73F
:01055D00227B
:1006D700E4F530E530C3952A501D74112530F8E64E
:1006E700B52810741C2530F8E6B52907052A120726
:0706F70083050F053080DCD4
:0106FE0022D9
:10018600E4F532F5331207DCE4F531E5312532903A
:10019600012693FD7C00AF311207250531E531C3F9
:1001A600940840E70533E533D39404400FE4F53370
:1001B6000532E532D394584003E4F532E50F700278
:1001C600D2A0E50FB40102C2A0E50FB40204C2A09A
:1001D600C2A1E50FB40306C2A0C2A1C2A2E50FB434
:1001E6000408C2A0C2A1C2A2C2A3E50FB4050AC2F6
:1001F600A0C2A1C2A2C2A3C2A4E50FB4060CC2A0AB
:10020600C2A1C2A2C2A3C2A4C2A5E50FB4070EC270
:10021600A0C2A1C2A2C2A3C2A4C2A5C2A6E50F647F
:1002260008600302018EC2A0C2A1C2A2C2A3C2A4D8
:09023600C2A5C2A6C2A702018EF6
:1005AB00753004E530C3952A501974112530F8E6DF
:1005BB00B5110C741C2530F8E6B51C031201860529
:1005CB003080E0C3E51164809480401BD3E5116457
:1005DB008094875012C3E51C648094804009D3E556
:0A05EB001C6480948740031201860F
:0105F50022E3
:10023F00752A02751004750FFF120494120768BF18
:10024F00011F12079C752BC812055E1200038F2722
:10025F001206371207DC1205011206D71205AB8002
:10026F00DB120768BF021F12079C752B9612055EE3
:10027F001200038F271206371207DC120501120630
:10028F00D71205AB80DB120768BF031F12079C75DF
:10029F002B6412055E1200038F271206371207DC3C
:1002AF001205011206D71205AB80DB120768BF04D7
:1002BF001F12079C752B9612055E1200038F2712D3
:1002CF0006371207DC1205011206D71205AB80DBC9
:0102DF0022FC
:03000B000202E00E
:1002E000C0E0C0F0C083C082C0D075D000C000C0E4
:0D02F00001C002C003C004C005C006C00765
:1002FD00758A18758CFC050AE50A700205096432C9
:10030D0045097007F509F50A120671050CE50C7023
:10031D0002050BB52B0BE4B50B07F50BF50C120510
:10032D00F6120768EF6404702C050EE50E700205D9
:10033D000DB48821E50DB4131C750D00750E00125A
:10034D000783E52890000E93FFE52990001693FD95
:05035D007C001207C83E
:10036200D007D006D005D004D003D002D001D000EF
:0B037200D0D0D082D083D0F0D0E03299
:0206AA00AD079A
:1006AC00E4FB74807E00A803088006CEA2E713CE7C
:1006BC0013D8F8FFEDF582EF558224FF92B4D2B631
:0A06CC00C2B60BBB08DCD2B5C2B504
:0106D6002201
:0507DC00C2B6C2B52207
:10072500AA07AF051206AAAF027480A807088002BF
:10073500C313D8FCF4F5807F017E001207B37580E2
:02074500FF2291
:1007C800AA07AF051206AA8A807F017E001207B326
:0407D8007580FF2207
:1007B300EF1FAC0670011E4C600A7D027CEFDCFE6D
:0407C300DDFC80ECED
:0107C700220F
:0607610001340001350027
:05000300AF36E4F53604
:0100080022D5
:1006FF00E4FF7590FFC2922095027F0A7590FFC2AA
:10070F00912096027F072094027F0F7590FFC29071
:05071F002095027F0C93
:0107240022B2
:100671008535341206FF8F35E5347008E535B4074A
:1006810003753602E5347008E535B40F037536019C
:10069100E5347008E535B40A03753604E5347008AD
:0806A100E535B40C03753603C6
:0106A900222E
:10079C005389F0438901758A18758CFCC28DD28CF3
:0707AC00D2A9D2AFC2B922AD
:0300000002037D7B
:0C037D00787FE4F6D8FD7581360203C4D9
:10040900C2D5EC30E709B2D5E4C39DFDE49CFCEE0E
:1004190030E715B2D5E4C39FFFE49EFE12043FC343
:10042900E49DFDE49CFC800312043F30D507C3E43E
:060439009FFFE49EFE227D
:10055E00AC2CAD2DAE2EAF2F7810EC4D4E4F70044F
:10056E007CA57DA5C3EC13FCED13FDEE13FEEF137E
:10057E00FF5010EC64CCFCED644CFDEE644EFEEFCF
:10058E0064CEFFD8DF8C2C8D2D8E2E8F2FEE547FC8
:0D059E00FE228E2C8F2D74A5F52EF52F2238
:1003890002023FE493A3F8E493A34003F68001F249
:1003990008DFF48029E493A3F85407240CC8C33375
:1003A900C4540F4420C8834004F456800146F6DF44
:1003B900E4800B0102040810204080900747E47E86
:1003C900019360BCA3FF543F30E509541FFEE49339
:1003D900A360010ECF54C025E060A840B8E493A300
:1003E900FAE493A3F8E493A3C8C582C8CAC583CA2B
:1003F900F0A3C8C582C8CAC583CADFE9DEE780BEE3
:010767000091
:10043F00BC000BBE0029EF8DF084FFADF022E4CCA1
:10044F00F875F008EF2FFFEE33FEEC33FCEE9DEC6A
:10045F00984005FCEE9DFE0FD5F0E9E4CEFD22EDB0
:10046F00F8F5F0EE8420D21CFEADF075F008EF2FFA
:10047F00FFED33FD4007985006D5F0F222C398FDEB
:05048F000FD5F0EA2288
:00000001FF
