:10025D007FBFDFEFF7FBFDFE804020100804020199
:10026D0000000000000000007E818189894E001F82
:10027D006888681F00FF40202040FF00FF9191918A
:10028D009100007E818181817E00F00E010EF000D3
:10029D00FF91919191007F888C8A7100000000F28E
:1002AD00979202F2121202F202F2929202F242B20C
:1002BD00020202F20282F282000000000000000041
:10032A002020100000000000000000000000000073
:10033A0000000000000000000000000000000000B3
:10034A000000002020300000000000000000000033
:10035A000000000000000000000000000000000093
:06036A000000000000008D
:10059C0020B10375080120B00375080220B2037561
:0A05AC00080320B303750804AF082C
:0105B6002222
:10040F00E55304FFEFD39400401B740F2FF8E6FE63
:10041F0074102FF8A606742F2FF8E6FE74302FF8FD
:10042F00A6061F80DFE50F24FE600D14600D14601B
:10043F000D2403700B1530220530221510220510E4
:01044F00228A
:10048E00E550603524FE601414601B1460222403B2
:10049E007027E50F64016021750F0222E50F6402DB
:1004AE006017750F0122E50F6403600D750F0422AE
:0A04BE00E50F64046003750F0322CC
:1005B7001203777C007D081201D28D511203777CDC
:0905C700007D081201D28D5222C0
:1002CD00E4F559E559C39553505212061074102593
:1002DD0059F8E6FF3395E0FE745D2FF58274023E0A
:1002ED00F583E493FF74302559F8E6FD3395E0FC72
:1002FD0074652DF58274023CF583E493FD7C001248
:10030D0005FC120610E55190025D93FFE552900237
:0C031D006593FD7C001205FC055980A7CB
:0103290022B1
:10052E00E4F559E559C39553501B74102559F8E657
:10053E00B5510E74302559F8E6B55205055312051E
:05054E00B7055980DE35
:010553002285
:10045000E4F55BF55C120610E4F55AE55A255B906D
:10046000026D93FD7C00AF5A12057A055AE55AC316
:10047000940840E7055CE55CD3940440DBE4F55C5C
:0E048000055BE55BD3945840CFE4F55B80CA82
:1003C400755904E559C39553501974102559F8E625
:1003D400B5100C74302559F8E6B5300312045005F5
:1003E4005980E0C3E51064809480401BD3E5106419
:1003F4008094875012C3E530648094804009D3E52B
:0A0404003064809487400312045016
:01040E0022CB
:1000AB00755302750F0412059CBF011F1205D07505
:1000BB0054C81203771200038F5012048E120610CD
:1000CB001202CD12052E1203C480DB12059CBF0257
:1000DB001F1205D07554961203771200038F50121E
:1000EB00048E1206101202CD12052E1203C480DBF1
:1000FB0012059CBF031F1205D075546412037712AF
:10010B0000038F5012048E1206101202CD12052E10
:10011B001203C480DB12059CBF041F1205D075545B
:10012B00961203771200038F5012048E12061012D0
:0B013B0002CD12052E1203C480DB224F
:03000B0002000EE2
:10000E00C0E0C0F0C083C082C0D075D000C000C0B8
:0D001E0001C002C003C004C005C006C00739
:10002B00758A18758CFC050AE50A7002050964329D
:10003B0045097007F509F50A1204C8050CE50C70A3
:10004B0002050BB5540BE4B50B07F50BF50C1204BD
:10005B000F12059CEF6404702C050EE50E70020563
:10006B000DB48821E50DB4131C750D00750E00122F
:10007B0005B7E55190025D93FFE55290026593FD44
:05008B007C001205FCE1
:10009000D007D006D005D004D003D002D001D000C4
:0B00A000D0D0D082D083D0F0D0E0326E
:02050100AD0744
:10050300E4FB74807E00A803088006CEA2E713CE26
:1005130013D8F8FFEDF582EF558224FF92B4D2B6DB
:0A052300C2B60BBB08DCD2B5C2B5AE
:01052D0022AB
:05061000C2B6C2B522D4
:1005FC00AA07AF051205018A807F017E001205E76C
:04060C007580FF22D4
:10057A00AA07AF05120501AF027480A80708800216
:10058A00C313D8FCF4F5807F017E001205E775805D
:02059A00FF223E
:1005E700EF1FAC0670011E4C600A7D027CEFDCFE3B
:0405F700DDFC80ECBB
:0105FB0022DD
:06037000015D00015E00CA
:05000300AF5FE4F55FB2
:0100080022D5
:10055400E4FF7590FFC2922095027F0A7590FFC256
:10056400912096027F072094027F0F7590FFC2901E
:050574002095027F0C40
:01057900225F
:1004C800855E5D1205548F5EE55D7008E55EB407D4
:1004D80003755F02E55D7008E55EB40F03755F01A3
:1004E800E55D7008E55EB40A03755F04E55D7008B4
:0804F800E55EB40C03755F031F
:0105000022D8
:1005D0005389F0438901758A18758CFCC28DD28CC1
:0705E000D2A9D2AFC2B9227B
:03000000020146B4
:0C014600787FE4F6D8FD75815F02018D22
:1001D200C2D5EC30E709B2D5E4C39DFDE49CFCEE48
:1001E20030E715B2D5E4C39FFFE49EFE120208C3B6
:1001F200E49DFDE49CFC800312020830D507C3E4B1
:060202009FFFE49EFE22B6
:10037700AC55AD56AE57AF587810EC4D4E4F700494
:100387007CA57DA5C3EC13FCED13FDEE13FEEF1367
:10039700FF5010EC64CCFCED644CFDEE644EFEEFB8
:1003A70064CEFFD8DF8C558D568E578F58EE547F0D
:0D03B700FE228E558F5674A5F557F558227D
:100152000200ABE493A3F8E493A34003F68001F218
:1001620008DFF48029E493A3F85407240CC8C333AE
:10017200C4540F4420C8834004F456800146F6DF7D
:10018200E4800B010204081020408090032AE47EE0
:10019200019360BCA3FF543F30E509541FFEE49372
:1001A200A360010ECF54C025E060A840B8E493A339
:1001B200FAE493A3F8E493A3C8C582C8CAC583CA64
:1001C200F0A3C8C582C8CAC583CADFE9DEE780BE1C
:010376000086
:10020800BC000BBE0029EF8DF084FFADF022E4CCDA
:10021800F875F008EF2FFFEE33FEEC33FCEE9DECA3
:10022800984005FCEE9DFE0FD5F0E9E4CEFD22EDE9
:10023800F8F5F0EE8420D21CFEADF075F008EF2F33
:10024800FFED33FD4007985006D5F0F222C398FD24
:050258000FD5F0EA22C1
:00000001FF
