:10000E007FBFDFEFF7FBFDFE8040201008040201EA
:10001E000040C0C0CE71010916201018090A0A044A
:10002E000000000000000000324949492600417FCF
:10003E0041007F201010207F007F48484830007F0D
:10004E00010101007F494941002200217F0100FF8B
:10005E00003E4141413E007F484C4A31007F4141C4
:10006E00413E00417F41007F201C027F000F34443F
:10007E00340F007F484C4A310040201F20400022A0
:10008E000023474D593100FF007F4141413E004161
:10009E007F41007F484840007F48484000417F41F3
:1000AE00003E41414122007E0101017E007F01019F
:1000BE00010140407F40400040201F2040002200B0
:1000CE00224149493600FF007F494941007F201CEB
:1000DE00027F0040407F4040007F494941007F48F9
:1000EE004C4A310040407F4040000F3444340F00F2
:1000FE00417F41007F201C027F007F201010207F57
:10010E00007F494941007F201C027F0040407F4014
:10011E00400022000C347F040000000000000000AC
:10012E007E818189894E001F6888681F00FF4020EC
:10013E002040FF00FF9191919100007E818181818D
:10014E007E00F00E010EF000FF91919191007F88DC
:10015E008C8A7100000000F2979202F2121202F2E3
:10016E0002F2929202F242B2020202F20282F28291
:08017E00000000000000000079
:1006D70010110000000000000000000000000000F2
:1006E70000001021000000000000000000000000D2
:0406F70000000000FF
:10074A0020B10375080120B00375080220B20375B1
:0A075A00080320B303750804AF087C
:010764002272
:10049500E4F53BF53C1207D0E4F53AE53A253BFF98
:1004A500E433FE741E2FF58274003EF583E493FD5C
:1004B5007C00AF3A120728053AE53AC3940840DBB9
:1004C500053CE53CD394084013E4F53C053BD3E5F6
:1004D5003B9400748094814003E4F53B12074AEF96
:1004E5006401601812074AEF6402601012074AEFB0
:0C04F5006403600812074AEF6404709C66
:0105010022D7
:1005F600E53404FFEFD39400401B74102FF8E6FE99
:1006060074112FF8A60674202FF8E6FE74212FF831
:10061600A6061F80DFE51024FE600D14600D146031
:100626000D2403700B152122052122151122051117
:0106360022A1
:10063700E531603524FE601414601B146022240326
:100647007027E5106401602175100222E51064022D
:10065700601775100122E5106403600D7510042200
:0A066700E51064046003751003221F
:1007650012055E7C007D0812040A8D3212055E7C3E
:09077500007D0812040A8D3322F4
:10050200E4F53AE53AC39534503C1207D07411250C
:100512003AF8E6FF3395E0FE740E2FF58274003E42
:10052200F583E493FF7421253AF8E6FD3395E0FC68
:1005320074162DF58274003CF583E493FD7C001261
:1005420007AA053A80BD1207D0E53290000E93FF4C
:0C055200E53390001693FD7C000207AA20
:1007BE00E532B5110CE533B5210705341207650591
:0207CE000F22F8
:10018600E4F53CF53D1207D0E4F53BE53B253C9014
:10019600012693FD7C00AF3B120728053BE53BC3D8
:1001A600940840E7053DE53DD39404400FE4F53D52
:1001B600053CE53CD394584003E4F53CE50F70025A
:1001C600D2A0E50FB40102C2A0E50FB40204C2A09A
:1001D600C2A1E50FB40306C2A0C2A1C2A2E50FB434
:1001E6000408C2A0C2A1C2A2C2A3E50FB4050AC2F6
:1001F600A0C2A1C2A2C2A3C2A4E50FB4060CC2A0AB
:10020600C2A1C2A2C2A3C2A4C2A5E50FB4070EC270
:10021600A0C2A1C2A2C2A3C2A4C2A5C2A6E50FC320
:100226009408500302018EC2A0C2A1C2A2C2A3C2F8
:0A023600A4C2A5C2A6C2A702018E51
:1005AB00753A04E53AC3953450197411253AF8E6B7
:1005BB00B5110C7421253AF8E6B521031201860515
:1005CB003A80E0C3E51164809480401BD3E511644D
:1005DB008094875012C3E521648094804009D3E551
:0A05EB00216480948740031201860A
:0105F50022E3
:10024000753402751004750FFF12049512074ABF2A
:10025000011F12077E7535C812055E1200038F312B
:100260001206371207D01205021207BE1205AB8024
:10027000DB12074ABF021F12077E75359612055E14
:100280001200038F311206371207D012050212072F
:10029000BE1205AB80DB12074ABF031F12077E7533
:1002A000356412055E1200038F311206371207D033
:1002B0001205021207BE1205AB80DB12074ABF040B
:1002C0001F12077E75359612055E1200038F3112DC
:1002D00006371207D01205021207BE1205AB80DBEB
:0102E00022FB
:03000B000202E10D
:1002E100C0E0C0F0C083C082C0D075D000C000C0E3
:0D02F10001C002C003C004C005C006C00764
:1002FE00758A18758CFC050AE50A700205096432C8
:10030E0045097007F509F50A120671050CE50C7022
:10031E0002050BB5350BE4B50B07F50BF50C120505
:10032E00F612074AEF6404702C050EE50E700205F6
:10033E000DB48821E50DB4131C750D00750E001259
:10034E000765E53290000E93FFE53390001693FD9E
:05035E007C001207AA5B
:10036300D007D006D005D004D003D002D001D000EE
:0B037300D0D0D082D083D0F0D0E03298
:0206AA00AD079A
:1006AC00E4FB74807E00A803088006CEA2E713CE7C
:1006BC0013D8F8FFEDF582EF558224FF92B4D2B631
:0A06CC00C2B60BBB08DCD2B5C2B504
:0106D6002201
:0507D000C2B6C2B52213
:10072800AA07AF051206AAAF027480A807088002BC
:10073800C313D8FCF4F5807F017E001207957580FD
:02074800FF228E
:1007AA00AA07AF051206AA8A807F017E0012079562
:0407BA007580FF2225
:10079500EF1FAC0670011E4C600A7D027CEFDCFE8B
:0407A500DDFC80EC0B
:0107A900222D
:0606FB00013E00013F007A
:05000300AF40E4F540F0
:0100080022D5
:10070200E4FF7590FFC2922095027F0A7590FFC2A6
:10071200912096027F072094027F0F7590FFC2906E
:050722002095027F0C90
:0107270022AF
:10067100853F3E1207028F3FE53E7008E53FB40714
:1006810003754002E53E7008E53FB40F0375400174
:10069100E53E7008E53FB40A03754004E53E700885
:0806A100E53FB40C03754003B2
:0106A900222E
:10077E005389F0438901758A18758CFCC28DD28C11
:07078E00D2A9D2AFC2B922CB
:0300000002037E7A
:0C037E00787FE4F6D8FD7581400203C5CD
:10040A00C2D5EC30E709B2D5E4C39DFDE49CFCEE0D
:10041A0030E715B2D5E4C39FFFE49EFE120440C341
:10042A00E49DFDE49CFC800312044030D507C3E43C
:06043A009FFFE49EFE227C
:10055E00AC36AD37AE38AF397810EC4D4E4F700427
:10056E007CA57DA5C3EC13FCED13FDEE13FEEF137E
:10057E00FF5010EC64CCFCED644CFDEE644EFEEFCF
:10058E0064CEFFD8DF8C368D378E388F39EE547FA0
:0D059E00FE228E368F3774A5F538F5392210
:10038A00020240E493A3F8E493A34003F68001F247
:10039A0008DFF48029E493A3F85407240CC8C33374
:1003AA00C4540F4420C8834004F456800146F6DF43
:1003BA00E4800B01020408102040809006D7E47EF6
:1003CA00019360BCA3FF543F30E509541FFEE49338
:1003DA00A360010ECF54C025E060A840B8E493A3FF
:1003EA00FAE493A3F8E493A3C8C582C8CAC583CA2A
:1003FA00F0A3C8C582C8CAC583CADFE9DEE780BEE2
:0107010000F7
:10044000BC000BBE0029EF8DF084FFADF022E4CCA0
:10045000F875F008EF2FFFEE33FEEC33FCEE9DEC69
:10046000984005FCEE9DFE0FD5F0E9E4CEFD22EDAF
:10047000F8F5F0EE8420D21CFEADF075F008EF2FF9
:10048000FFED33FD4007985006D5F0F222C398FDEA
:050490000FD5F0EA2287
:00000001FF
